{
  "_format": "hh-sol-artifact-1",
  "contractName": "gasChallenge",
  "sourceName": "contracts/gasChallenge.sol",
  "abi": [
    {
      "inputs": [],
      "name": "getSumOfArray",
      "outputs": [
        {
          "internalType": "uint256",
          "name": "",
          "type": "uint256"
        }
      ],
      "stateMutability": "view",
      "type": "function"
    },
    {
      "inputs": [],
      "name": "notOptimizedFunction",
      "outputs": [],
      "stateMutability": "nonpayable",
      "type": "function"
    },
    {
      "inputs": [],
      "name": "optimizedFunction",
      "outputs": [],
      "stateMutability": "nonpayable",
      "type": "function"
    }
  ],
  "bytecode": "0x6080604052604051806101400160405280600160ff168152602001600260ff168152602001600360ff168152602001600460ff168152602001600560ff168152602001600660ff168152602001600760ff168152602001600860ff168152602001600960ff168152602001600a60ff16815250600090600a610082929190610095565b5034801561008f57600080fd5b506100f7565b82600a81019282156100c9579160200282015b828111156100c8578251829060ff169055916020019190600101906100a8565b5b5090506100d691906100da565b5090565b5b808211156100f35760008160009055506001016100db565b5090565b6102a6806101066000396000f3fe608060405234801561001057600080fd5b50600436106100415760003560e01c806368b5f223146100465780637ce418941461005057806380d2c8031461005a575b600080fd5b61004e610078565b005b6100586100b4565b005b610062610111565b60405161006f919061017b565b60405180910390f35b60005b600a8110156100b15760008082600a811061009957610098610196565b5b018190555080806100a9906101f4565b91505061007b565b50565b600080600a90505b600081111561010d57600060018203600a81106100dc576100db610196565b5b01548201915060008060018303600a81106100fa576100f9610196565b5b01819055508080600190039150506100bc565b5050565b6000806000905060005b600a81101561015a57600081600a811061013857610137610196565b5b015482610145919061023c565b91508080610152906101f4565b91505061011b565b508091505090565b6000819050919050565b61017581610162565b82525050565b6000602082019050610190600083018461016c565b92915050565b7f4e487b7100000000000000000000000000000000000000000000000000000000600052603260045260246000fd5b7f4e487b7100000000000000000000000000000000000000000000000000000000600052601160045260246000fd5b60006101ff82610162565b91507fffffffffffffffffffffffffffffffffffffffffffffffffffffffffffffffff8203610231576102306101c5565b5b600182019050919050565b600061024782610162565b915061025283610162565b925082820190508082111561026a576102696101c5565b5b9291505056fea2646970667358221220949c5bc7e7741edce53146997ee6ea156b7b2fba670050884dd9f9b10147923964736f6c63430008120033",
  "linkReferences": {},
  "deployedLinkReferences": {}
}